:06000000020FA402006BD8
:03000B0002006B85
:0300130002006B7D
:03001B0002006B75
:0300230002006B6D
:03002B0002006B65
:0300330002006B5D
:03003B0002006B55
:0300430002006B4D
:03004B0002006B45
:0300530002006B3D
:03005B0002006B35
:0300630002006B2D
:01006B003262
:1000800002006B0002006B0002006B0002006B00BC
:1000900002006B0002006B0002006B0002006B00AC
:1000A00002006B0002006B0002006B0002006B009C
:0800B00002006B0002006B006E
:1001000002006B0002006B0002006B0002006B003B
:1001100002006B0002006B0002006B0002006B002B
:1001200002006B0002006B0002006B0002006B001B
:1001300002006B0002006B0002006B0002006B000B
:1001400002006B0002006B0002006B0002006B00FB
:1001500002006B0002006B0002006B0002006B00EB
:1001600002006B0002006B0002006B0002006B00DB
:1001700002006B0002006B0002006B0002006B00CB
:030FAC00020FAF82
:030FC200020180A9
:1001800012057B80FEC200E4F508F509F50AD201EC
:10019000750B00750C0012077812077575CB637527
:1001A000CAC0758E0075C804D2AFD2B0D2B190E685
:1001B0000B7403F00090E6047480F00090E6047481
:1001C00002F00090E6047404F00090E6047406F077
:1001D0000090E6047408F00090E604E4F00090E675
:1001E0001074A0F00090E61174A0F00090E618E4FE
:1001F000F00090E61274A2F00090E619E4F000908E
:10020000E61374A0F00090E60BE4F00090E614749E
:10021000A2F00090E61AE4F00090E61A7411F000E3
:1002200090E61574E0F00090E61BE4F00090E61B09
:100230007409F00090E626E4F00090E6277440F0A0
:100240000090E6917480F00090E6957480F0009044
:10025000E6917480F00090E6957480F00043A080F1
:1002600090E6FBE0FA54FDF090E601E0FA54F7F076
:1002700022AA82850C827583E0EAF0050C0509E468
:10028000B50902050A222000012212077490E6A295
:10029000E0FA30E10302031FE509450A60697AC00C
:1002A0007BE78B9D7AC07BE77B008A9E90E67C741F
:1002B00031F07460F0C3743E9509E4950A50107AE9
:1002C0003EE50924C2F509E50A34FFF50A8007AACC
:1002D00009E4F509F50A8A037C007DE08D9A850B17
:1002E0009B8A041AEC601190E67BE0FC90E67CF0BF
:1002F0007C007DE08D9A80E9859B0B0090E68F74F1
:10030000022BF0D2CF801830CF1590E7C07431F0B7
:1003100090E7C17460F00090E68F7402F0C2CFE500
:10032000AA30E00122C3E50994C1E50A9400400126
:100330002290E691E0FA7B007CF08C9A7B007CF0C6
:100340007C008B9B7B00C3EB9A4003020403E5080F
:100350006065EAC39BFCC3E5089C5002AC08E50855
:10036000C39CF508EC2BFB3001208C058D061DEE9F
:1003700060D490E67BE0FEF582C002C003C00512A7
:10038000080AD005D003D00280E28C051CED60B6CF
:1003900090E67BE0FDF582C002C003C0041208476E
:1003A000D004D003D002C002C003C004120271D036
:1003B00004D003D00280D390E67BE0FC30E6047DDD
:1003C0000080027D01ED24FF9201EC30E707743FCD
:1003D0005CF508802A30010F8C82C002C00312072E
:1003E0009AD003D00280188C82C002C0031207F793
:1003F000D003D002C002C003120271D003D0020B9E
:100400000203460090E6917480F02290E6B8E0FA8C
:1004100020E70C90E6B9E07002D2007582012290CC
:10042000E6B9E0FABA9002801ABA9102805ABA92FA
:10043000030204C0BA93030204DABA940302050A61
:1004400002054390E6BCE025E0547FFA2400F582E3
:10045000E43418F583E0FB90E740F074012A2400AF
:10046000F582E43418F583E0FA90E741F090E6BEB7
:10047000E0FABA0200500790E6BEE0FA80027A0283
:1004800090E68BEAF002056C90E6BCE0701390E613
:10049000FBE0FA54FDF090E7407402F01209398055
:1004A0001190E6FBE0FA4402F090E7407401F0128C
:1004B000093990E68AE4F090E68B7401F002056C4D
:1004C00090E6BCE0700543A080800353A07F90E6D7
:1004D0008AE4F090E68BF002056C90E6BCE0700FC9
:1004E00090E601E0FA54F7F090E740E4F0800E90D7
:1004F000E601E0FA4408F090E7407401F090E68AE3
:10050000E4F090E68B7401F080627A007B00EA24CC
:10051000C5FCEB340FFD7E808C828D838EF0120F34
:1005200088FC6013EA2440F582EB34E7F583ECF0B5
:100530000ABA00DA0B80D790E68AE4F090E68BEAFC
:10054000F0802990E7407436F090E7417483F09092
:10055000E68AE4F090E6BEE0FABA0200500790E6C0
:10056000BEE0FA80027A0290E68BEAF07582012200
:10057000300203120AD412028680F5C2AF1201853E
:100580001205D8120EB9120A3ED2AF12093902056D
:0105900070FA
:060FC500342E312E300035
:10E1000012011001FF000040FB0901600004010240
:10E1100003010A061001FFFFFF400100090237005A
:10E1200002010080FA0904000002FFFFFF02070558
:10E1300081024000000705020240000009040100BE
:10E1400002FFFFFF02070506020002000705880222
:03E15000000200CA
:10E154001201100100000040FB09016000040102EB
:10E1640003010A061001FFFFFF4001000902370006
:10E1740002010080FA0904000002FFFFFF02070504
:10E18400810240000007050202400000090401006A
:10E1940002FFFFFF02070506024000000705880290
:10E1A40040000004B0E1B6E1C0E1D8E1060300009C
:10E1B40009040A034500500046004C0018035500AA
:10E1C400530042002D0042006C0061007300740093
:10E1D400650072001203300030003000300030005F
:06E1E400300030003000A5
:10059100AA82E50D54FEFBB50D02802A8A048C0562
:1005A100E4FC620EED620FEB2400F582E43418F5F1
:1005B10083E0FB7C00620EEC620FE50E33C50F3366
:1005C100C50F92E0F50EAB0D050DEB2400F582E4AD
:1005D1003418F583EAF022750D00750EAA750FAA7D
:1005E1007582001205917582001205917A00C3EAA5
:1005F100648094865018EA2408F582E434E1F58396
:10060100E0FBF582C002120591D0020A80E07A0077
:10061100C3EA648094825018EA2423F582E434E129
:10062100F583E0FBF582C002120591D0020A80E059
:1006310075821C1205917582001205917A00C3EA38
:10064100648094825018EA2402F582E434E1F5834F
:10065100E0FBF582C002120591D0020A80E07486A7
:10066100250DFAF582C002120591D00290E1B6E0A3
:10067100FBF582C002120591D00290E1B6E0FB2A9F
:10068100FAF582C002120591D00290E1C0E0FBF5BB
:1006910082C002120591D00290E1C0E0FB2AFAF576
:1006A1008212059190E1D8E0FAF5821205917A0063
:1006B10090E1B6E0FBC3EA64808BF063F08095F0D3
:1006C1005018EA24B6F582E434E1F583E0FBF582C3
:1006D100C002120591D0020A80D67A0090E1C0E0F2
:1006E100FBC3EA64808BF063F08095F05018EA2434
:1006F100C0F582E434E1F583E0FBF582C002120526
:1007010091D0020A80D67A0090E1D8E0FBC3EA6476
:10071100808BF063F08095F05018EA24D8F582E4DC
:1007210034E1F583E0FBF582C002120591D0020AA3
:1007310080D67A00C3EA648094845018EA240EF5C6
:1007410082E434E1F583E0FBF582C002120591D029
:10075100020A80E07482250D40087582001205911D
:1007610080F2AA0E7B0090187EEAF0AA0F90187F03
:03077100EAF02289
:020FA400D22158
:100774002222222275B48075B67F75B14090E600BE
:100784007410F075B48D90E60174E0F0E0FA90E630
:1007940001740B4AF022E582FA30E0047B01800206
:1007A4007B00EB24FF92A2EA30E1047B0180027B10
:1007B40000EB24FF92A3EA30E2047B0180027B0079
:1007C400EB24FF92A5EA30E3047B0180027B00EB7B
:1007D40024FF92A4EA30E4047B0180027B00EB2432
:1007E400FF92A0EA30E5047A0180027A00EA24FF4D
:1007F40092A72212079AE4A2A63325E0FAE4A2A162
:1008040033FB4AF58222E5821392A0D2A213C2A23C
:1008140092A0D2A213C2A292A0D2A213C2A292A068
:10082400D2A213C2A292A0D2A213C2A292A0D2A216
:1008340013C2A292A0D2A213C2A292A0D2A200C2B8
:10084400A22222AA8230A4058A820208568A82023F
:1008540008A4E582A2A11392A0D2A2C2A2A2A113CB
:1008640092A0D2A2C2A2A2A11392A0D2A2C2A2A278
:10087400A11392A0D2A2C2A2A2A11392A0D2A2C2F8
:10088400A2A2A11392A0D2A2C2A2A2A11392A0D208
:10089400A2C2A2A2A11392A0D2A2C2A2F582222233
:1008A400E582A2A61392A0D2A2C2A2A2A61392A0EB
:1008B400D2A2C2A2A2A61392A0D2A2C2A2A2A6139C
:1008C40092A0D2A2C2A2A2A61392A0D2A2C2A2A213
:1008D400A61392A0D2A2C2A2A2A61392A0D2A2C28E
:1008E400A2A2A61392A0D2A2C2A2F582222278804A
:1008F400E84400600C7901901800E4F0A3D8FCD916
:10090400FAD083D082F6D8FDC082C08375820022DB
:1009140090E6A0E0FA4401F022AA8274805AFBC453
:1009240023541FFB740F5A90E6834BF090E683E048
:10093400FA4420F02290E680E0FA440AF09000FAAB
:10094400120F7590E65D74FFF090E65F74FFF0534C
:0B09540091EF90E680E0FA54F7F022EB
:060FBC00E478FFF6D8FD09
:060FA6007510007511003A
:10095F0090E680E0FA30E7267512007513E1751402
:10096F00127515E175161C7517E17518707519E17B
:10097F0090E6267402F00090E627E4F0002275124C
:10098F00547513E17514667515E17516707517E1D9
:10099F0075181C7519E190E626E4F00090E62774AF
:1009AF0040F000225391EF75A100D20232C0E0C097
:1009BF00F0C082C083C002C003C004C005C006C01F
:1009CF0007C000C001C0D075D0005391EF75A100D2
:1009DF0012095FD0D0D001D000D007D006D005D0FB
:1009EF0004D003D002D083D082D0F0D0E032C0E068
:1009FF00C0F0C082C083C002C003C004C005C006DF
:100A0F00C007C000C001C0D075D0005391EF75A1D1
:100A1F000012095FD0D0D001D000D007D006D0058A
:100A2F00D004D003D002D083D082D0F0D0E03212E5
:100A3F00095F751AB3751B09758200120E0A751AB4
:100A4F00BC751B09758210120E0A751AFD751B09EC
:100A5F00758214120E0A90E65C7431F022E582540E
:100A6F007FFA24F7500475820022BA0104758201BF
:100A7F0022530201E4BA000104F58222AA82BA01CC
:100A8F000C90E6A1E0FB7C008B828C8322BA810C58
:100A9F0090E6A2E0FB7C008B828C832253027FEADC
:100AAF00700C90E6A0E0FB7C008B828C832290E69A
:100ABF00A3E0FB7C00EAC313FA7D00EA2BFBED3CBD
:100ACF008B82F58322C20290E6B8E0FA530260BA35
:100ADF0000028028BA2002800DBA4002800EBA6050
:100AEF00028003020D9E120914020D9E12040BE5E3
:100AFF00826003020D9E120914020D9E90E6B8E06B
:100B0F00FA530280BA80028003020C9790E6B9E094
:100B1F00FABA0003020C0EBA06028035BA08028038
:100B2F0008BA0A028017020C9190E740E510F09086
:100B3F00E68AE4F090E68B7401F0020D9E90E74098
:100B4F00E511F090E68AE4F090E68B7401F0020D67
:100B5F009E90E6BBE0FABA01028017BA0202803813
:100B6F00BA03028059BA0602801BBA0702803C0200
:100B7F000C08AA12AB1390E6B3EBF07B0090E6B42F
:100B8F00EAF0020D9EAA14AB1590E6B3EBF07B00D2
:100B9F0090E6B4EAF0020D9EAA16AB1790E6B3EBFF
:100BAF00F07B0090E6B4EAF0020D9EAA18AB199004
:100BBF00E6B3EBF07B0090E6B4EAF0020D9E90E610
:100BCF00BAE0FA90E1A7E0FBC3EA9B4006120914D2
:100BDF00020D9E90E6BAE0FA75F002A424A8F58201
:100BEF0074E135F0F583E0FAA3E0FB90E6B3F07B18
:100BFF000090E6B4EAF0020D9E120914020D9E90C9
:100C0F00E6B8E0FA53021FBA0002800ABA01028066
:100C1F001BBA0268802C90E740E4F090E741F09017
:100C2F00E68AF090E68B7402F0020D9E90E740E4A6
:100C3F00F090E741F090E68AF090E68B7402F002B4
:100C4F000D9E90E6BCE0FAF582120A6CE5826026F2
:100C5F0090E6BCE0FAF582120A8BE0FA530201909B
:100C6F00E740EAF090E741E4F090E68AF090E68BF7
:100C7F007402F0020D9E120914020D9E1209140245
:100C8F000D9E120914020D9E90E6B9E0FA24F4505D
:100C9F0003020D9BEA2A2A900CAA73020D9B020CE9
:100CAF00E3020D61020D42020D9B020D9B020D9B93
:100CBF00020D9B020D9B020CCE020D9B020CDA5310
:100CCF00B1BF90E6BAE0F510020D9E90E6BAE0F5DE
:100CDF0011020D9E90E6B8E0FA53021FBA0002808F
:100CEF0005BA024A800A90E6BAE0120914020D9E74
:100CFF0090E6BAE0703390E6BCE0FAF582120A6C27
:100D0F00E582602590E6BCE0FAF582120A8BAA8292
:100D1F00AB83E0FC5304FE8A828B83ECF090E6BC3D
:100D2F00E0FAF58212091D8066120914806112091A
:100D3F0014805C90E6B8E0FA53021FBA005190E6B7
:100D4F00BAE0FABA01028005BA020280421209140F
:100D5F00803D90E6BAE0FA702E90E6BCE0FAF5829C
:100D6F00120A6CE582601B90E6BCE0FAF582120A6B
:100D7F008BAA82AB83E0FC4304018A828B83ECF065
:100D8F00800D12091480081209148003120914909F
:100D9F00E6A0E0FA4480F022AA82BA03004005EAF6
:100DAF00249C500122740F5AFBBB03028007740F5F
:100DBF005AFBBB0B45A2AF9203C2AFEA2400F582E8
:100DCF00E43400F5837402F07B0074012AFCE43BE9
:100DDF00FDEC2400F582ED3400F583E51BFCF07487
:100DEF00022AFAE43BFBEA2400F582EB3400F58398
:100DFF00AA1A7B00EAF0A20392AF22E582FA2483BB
:100E0F0050012274035AFB600122A2AF9204C2AFB9
:100E1F00EA2400F582E43401F5837402F07B007458
:100E2F00012AFCE43BFDEC2400F582ED3401F5834F
:100E3F00E51BFCF074022AFAE43BFBEA2400F5827E
:100E4F00EB3401F583AA1A7B00EAF0A20492AF22D9
:100E5F00AA82BA80004005EA244B50012274035A3B
:100E6F00FB600122A2AF9205C2AFEA2480F582E4B3
:100E7F003400F5837402F07B0074012AFCE43BFD1F
:100E8F00EC2480F582ED3400F583E51BFCF0740251
:100E9F002AFAE43BFBEA2480F582EB3400F583AABF
:100EAF001A7B00EAF0A20592AF22C2E8C2EA751AD5
:100EBF0000751B01758243120DA7751A80751B00F3
:100ECF00758253120DA70090E650E4F00090E652A1
:100EDF00E4F00090E654E4F00090E656E4F0009061
:100EEF00E65174FFF00090E65374FFF00090E65562
:100EFF0074FFF00090E65774FFF00090E658E4F0AE
:100F0F0090E65974FFF090E65AE4F090E65B74FFB8
:100F1F00F090E65CE4F090E65D74FFF090E65EE43E
:100F2F00F090E65F74FFF00090E660E4F00090E66A
:100F3F006174FFF090E662E4F090E66374FFF09066
:100F4F00E665E4F090E668740BF05391AFD2E8D207
:100F5F00EA2222AA82120F61DAFB2290FB50A3E54C
:100F6F0082458370F922AA82AB83120F6A1ABAFFE5
:090F7F00011BBA00F5BB00F222CF
:0D0FAF007581201208F2E5826003020180C6
:100F880020F71430F6148883A88220F507E6A88392
:0C0F980075830022E280F7E49322E0223F
:00000001FF
