:06000000020FF802006B84
:03000B0002006B85
:0300130002006B7D
:03001B0002006B75
:0300230002006B6D
:03002B0002006B65
:0300330002006B5D
:03003B0002006B55
:0300430002006B4D
:03004B0002006B45
:0300530002006B3D
:03005B0002006B35
:0300630002006B2D
:01006B003262
:1000800002006B0002006B0002006B0002006B00BC
:1000900002006B0002006B0002006B0002006B00AC
:1000A00002006B0002006B0002006B0002006B009C
:0800B00002006B0002006B006E
:1001000002006B0002006B0002006B0002006B003B
:1001100002006B0002006B0002006B0002006B002B
:1001200002006B0002006B0002006B0002006B001B
:1001300002006B0002006B0002006B0002006B000B
:1001400002006B0002006B0002006B0002006B00FB
:1001500002006B0002006B0002006B0002006B00EB
:1001600002006B0002006B0002006B0002006B00DB
:1001700002006B0002006B0002006B0002006B00CB
:03100000021003D8
:0310160002018054
:100180001205CF80FEC200E4F508F509F50AD20198
:10019000750B00750C001207CC1207C975CB63757F
:1001A000CAC0758E0075C804D2AFD2B0D2B190E685
:1001B0000B7403F00090E6047480F00090E6047481
:1001C00002F00090E6047404F00090E6047406F077
:1001D0000090E6047408F00090E604E4F00090E675
:1001E0001074A0F00090E61174A0F00090E618E4FE
:1001F000F00090E61274A2F00090E619E4F000908E
:10020000E61374A0F00090E60BE4F00090E614749E
:10021000A2F00090E61AE4F00090E61A7411F000E3
:1002200090E61574E0F00090E61BE4F00090E61B09
:100230007409F00090E626E4F00090E6277440F0A0
:100240000090E6917480F00090E6957480F0009044
:10025000E6917480F00090E6957480F00043A080F1
:1002600090E6FBE0FA54FDF090E601E0FA54F7F076
:1002700022AA82850C827583E0EAF0050C0509E468
:10028000B50902050A22200001221207C890E6A241
:10029000E0FA30E10302031FE509450A60697AC00C
:1002A0007BE78B9D7AC07BE77B008A9E90E67C741F
:1002B00031F07460F0C3743E9509E4950A50107AE9
:1002C0003EE50924C2F509E50A34FFF50A8007AACC
:1002D00009E4F509F50A8A037C007DE08D9A850B17
:1002E0009B8A041AEC601190E67BE0FC90E67CF0BF
:1002F0007C007DE08D9A80E9859B0B0090E68F74F1
:10030000022BF0D2CF801830CF1590E7C07431F0B7
:1003100090E7C17460F00090E68F7402F0C2CFE500
:10032000AA30E00122C3E50994C1E50A9400400126
:100330002290E690E0FA8A037A0090E691E0FC7D54
:1003400000EA4CF50DEB4DF50E7C007DF08D9A7CAE
:10035000007DF07D008C9B7C007D00C3EC950DED55
:10036000950E4003020457E5087003020407E50DEB
:10037000C39CFEE50E9DFFA8087900C3E89EE99F97
:100380005004880689078E00E508C398F508EE2C0E
:10039000FCEF3DFD30012D8E008F0188028903188E
:1003A000B8FF0119EA4B60B390E67BE0FAF582C032
:1003B00004C005C000C00112085ED001D000D00505
:1003C000D00480D78E028F038A068B071ABAFF01EA
:1003D0001BEE4F700302035B90E67BE0FEF582C0EC
:1003E00002C003C004C00512089BD005D004D0038E
:1003F000D002C002C003C004C005120271D005D0F3
:1004000004D003D00280C190E67BE0FA30E6047BA2
:100410000080027B01EB24FF9201EA30E707743F82
:100420005AF508802A30010F8A82C004C0051207DD
:10043000EED005D00480188A82C004C00512084B93
:10044000D005D004C004C005120271D005D0040C40
:10045000BC00010D02035B0090E6917480F02290D5
:10046000E6B8E0FA20E70C90E6B9E07002D2007539
:1004700082012290E6B9E0FABA9002801ABA91029B
:10048000805ABA9203020514BA930302052EBA9455
:100490000302055E02059790E6BCE025E0547FFA72
:1004A0002400F582E43418F583E0FB90E740F07413
:1004B000012A2400F582E43418F583E0FA90E7413C
:1004C000F090E6BEE0FABA0200500790E6BEE0FA0D
:1004D00080027A0290E68BEAF00205C090E6BCE06A
:1004E000701390E6FBE0FA54FDF090E7407402F0E0
:1004F00012098D801190E6FBE0FA4402F090E7408B
:100500007401F012098D90E68AE4F090E68B740194
:10051000F00205C090E6BCE0700543A08080035364
:10052000A07F90E68AE4F090E68BF00205C090E6AA
:10053000BCE0700F90E601E0FA54F7F090E740E479
:10054000F0800E90E601E0FA4408F090E740740174
:10055000F090E68AE4F090E68B7401F080627A0015
:100560007B00EA2419FCEB3410FD7E808C828D83A5
:100570008EF0120FDCFC6013EA2440F582EB34E7C6
:10058000F583ECF00ABA00DA0B80D790E68AE4F043
:1005900090E68BEAF0802990E7407436F090E741CE
:1005A0007483F090E68AE4F090E6BEE0FABA0200C6
:1005B000500790E6BEE0FA80027A0290E68BEAF0FD
:1005C00075820122300203120B2812028680F5C2C6
:1005D000AF12018512062C120F0D120A92D2AF1221
:0505E000098D0205C4B5
:06101900342E322E3000DF
:10E1000012011001FF000040FB0901600004010240
:10E1100003010A061001FFFFFF400100090237005A
:10E1200002010080FA0904000002FFFFFF02070558
:10E1300081024000000705020240000009040100BE
:10E1400002FFFFFF02070506020002000705880222
:03E15000000200CA
:10E154001201100100000040FB09016000040102EB
:10E1640003010A061001FFFFFF4001000902370006
:10E1740002010080FA0904000002FFFFFF02070504
:10E18400810240000007050202400000090401006A
:10E1940002FFFFFF02070506024000000705880290
:10E1A40040000004B0E1B6E1C0E1D8E1060300009C
:10E1B40009040A034500500046004C0018035500AA
:10E1C400530042002D0042006C0061007300740093
:10E1D400650072001203300030003000300030005F
:06E1E400300030003000A5
:1005E500AA82E50F54FEFBB50F02802A8A048C050A
:1005F500E4FC6210ED6211EB2400F582E43418F599
:1006050083E0FB7C006210EC6211E51033C5113309
:10061500C51192E0F510AB0F050FEB2400F582E450
:100625003418F583EAF022750F007510AA7511AA22
:100635007582001205E57582001205E57A00C3EAA8
:10064500648094865018EA2408F582E434E1F58341
:10065500E0FBF582C0021205E5D0020A80E07A00CF
:10066500C3EA648094825018EA2423F582E434E1D5
:10067500F583E0FBF582C0021205E5D0020A80E0B1
:1006850075821C1205E57582001205E57A00C3EA3C
:10069500648094825018EA2402F582E434E1F583FB
:1006A500E0FBF582C0021205E5D0020A80E07486FF
:1006B500250FFAF582C0021205E5D00290E1B6E0F9
:1006C500FBF582C0021205E5D00290E1B6E0FB2AF7
:1006D500FAF582C0021205E5D00290E1C0E0FBF513
:1006E50082C0021205E5D00290E1C0E0FB2AFAF5CE
:1006F500821205E590E1D8E0FAF5821205E57A0067
:1007050090E1B6E0FBC3EA64808BF063F08095F07E
:100715005018EA24B6F582E434E1F583E0FBF5826E
:10072500C0021205E5D0020A80D67A0090E1C0E049
:10073500FBC3EA64808BF063F08095F05018EA24DF
:10074500C0F582E434E1F583E0FBF582C0021205D1
:10075500E5D0020A80D67A0090E1D8E0FBC3EA64CE
:10076500808BF063F08095F05018EA24D8F582E488
:1007750034E1F583E0FBF582C0021205E5D0020AFB
:1007850080D67A00C3EA648094845018EA240EF572
:1007950082E434E1F583E0FBF582C0021205E5D081
:1007A500020A80E07482250F40087582001205E573
:1007B50080F2AA107B0090187EEAF0AA1190187FAB
:0307C500EAF02235
:020FF800D22104
:1007C8002222222290E6007412F090E60174E0F0F2
:1007D800E0FA90E601740B4AF075B48075B67F753F
:1007E800B14075B48D22E582FA30E0047B018002C5
:1007F8007B00EB24FF92A2EA30E1047B0180027BBC
:1008080000EB24FF92A3EA30E2047B0180027B0024
:10081800EB24FF92A5EA30E3047B0180027B00EB26
:1008280024FF92A4EA30E4047B0180027B00EB24DD
:10083800FF92A0EA30E5047A0180027A00EA24FFF8
:1008480092A7221207EEE4A2A63325E0FAE4A2A1B9
:1008580033FB4AF58222E5821392A0D2A213C2A2E8
:1008680092A0D2A213C2A292A0D2A213C2A292A014
:10087800D2A213C2A292A0D2A213C2A292A0D2A2C2
:1008880013C2A292A0D2A213C2A292A0D2A200C264
:10089800A22222AA8230A4058A820208AA8A820297
:1008A80008F8E582A2A11392A0D2A2C2A2A2A11323
:1008B80092A0D2A2C2A2A2A11392A0D2A2C2A2A224
:1008C800A11392A0D2A2C2A2A2A11392A0D2A2C2A4
:1008D800A2A2A11392A0D2A2C2A2A2A11392A0D2B4
:1008E800A2C2A2A2A11392A0D2A2C2A2F5822222DF
:1008F800E582A2A61392A0D2A2C2A2A2A61392A097
:10090800D2A2C2A2A2A61392A0D2A2C2A2A2A61347
:1009180092A0D2A2C2A2A2A61392A0D2A2C2A2A2BE
:10092800A61392A0D2A2C2A2A2A61392A0D2A2C239
:10093800A2A2A61392A0D2A2C2A2F58222227880F5
:10094800E84400600C7901901800E4F0A3D8FCD9C1
:10095800FAD083D082F6D8FDC082C0837582002287
:1009680090E6A0E0FA4401F022AA8274805AFBC4FF
:1009780023541FFB740F5A90E6834BF090E683E0F4
:10098800FA4420F02290E680E0FA440AF09000FA57
:10099800120FC990E65D74FFF090E65F74FFF053A4
:0B09A80091EF90E680E0FA54F7F02297
:06101000E478FFF6D8FDB4
:060FFA00751200751300E2
:1009B30090E680E0FA30E7267514007515E17516A8
:1009C300127517E175181C7519E1751A70751BE11D
:1009D30090E6267402F00090E627E4F000227514F6
:1009E300547515E17516667517E17518707519E17B
:1009F300751A1C751BE190E626E4F00090E6277457
:100A030040F000225391EF75A100D20232C0E0C042
:100A1300F0C082C083C002C003C004C005C006C0CA
:100A230007C000C001C0D075D0005391EF75A1007D
:100A33001209B3D0D0D001D000D007D006D005D052
:100A430004D003D002D083D082D0F0D0E032C0E013
:100A5300C0F0C082C083C002C003C004C005C0068A
:100A6300C007C000C001C0D075D0005391EF75A17D
:100A7300001209B3D0D0D001D000D007D006D005E2
:100A8300D004D003D002D083D082D0F0D0E0321291
:100A930009B3751C07751D0A758200120E5E751C5D
:100AA30010751D0A758210120E5E751C51751D0A94
:100AB300758214120E5E90E65C7431F022E5825466
:100AC3007FFA24F7500475820022BA01047582016B
:100AD30022530201E4BA000104F58222AA82BA0178
:100AE3000C90E6A1E0FB7C008B828C8322BA810C04
:100AF30090E6A2E0FB7C008B828C832253027FEA88
:100B0300700C90E6A0E0FB7C008B828C832290E645
:100B1300A3E0FB7C00EAC313FA7D00EA2BFBED3C68
:100B23008B82F58322C20290E6B8E0FA530260BAE0
:100B330000028028BA2002800DBA4002800EBA60FB
:100B4300028003020DF2120968020DF212045FE53E
:100B5300826003020DF2120968020DF290E6B8E01A
:100B6300FA530280BA80028003020CEB90E6B9E0EC
:100B7300FABA0003020C62BA06028035BA08028090
:100B830008BA0A028017020CE590E740E512F090DC
:100B9300E68AE4F090E68B7401F0020DF290E740F0
:100BA300E513F090E68AE4F090E68B7401F0020D11
:100BB300F290E6BBE0FABA01028017BA020280386B
:100BC300BA03028059BA0602801BBA0702803C02AC
:100BD3000C5CAA14AB1590E6B3EBF07B0090E6B483
:100BE300EAF0020DF2AA16AB1790E6B3EBF07B0026
:100BF30090E6B4EAF0020DF2AA18AB1990E6B3EB53
:100C0300F07B0090E6B4EAF0020DF2AA1AAB1B9057
:100C1300E6B3EBF07B0090E6B4EAF0020DF290E667
:100C2300BAE0FA90E1A7E0FBC3EA9B400612096829
:100C3300020DF290E6BAE0FA75F002A424A8F58258
:100C430074E135F0F583E0FAA3E0FB90E6B3F07BC3
:100C53000090E6B4EAF0020DF2120968020DF29078
:100C6300E6B8E0FA53021FBA0002800ABA01028012
:100C73001BBA0268802C90E740E4F090E741F090C3
:100C8300E68AF090E68B7402F0020DF290E740E4FE
:100C9300F090E741F090E68AF090E68B7402F00260
:100CA3000DF290E6BCE0FAF582120AC0E5826026F6
:100CB30090E6BCE0FAF582120ADFE0FA53020190F3
:100CC300E740EAF090E741E4F090E68AF090E68BA3
:100CD3007402F0020DF2120968020DF212096802A1
:100CE3000DF2120968020DF290E6B9E0FA24F4500D
:100CF30003020DEFEA2A2A900CFE73020DEF020D98
:100D030037020DB5020D96020DEF020DEF020DEF46
:100D1300020DEF020DEF020D22020DEF020D2E5315
:100D2300B1BF90E6BAE0F512020DF290E6BAE0F533
:100D330013020DF290E6B8E0FA53021FBA000280E4
:100D430005BA024A800A90E6BAE0120968020DF277
:100D530090E6BAE0703390E6BCE0FAF582120AC07E
:100D6300E582602590E6BCE0FAF582120ADFAA82EA
:100D7300AB83E0FC5304FE8A828B83ECF090E6BCE9
:100D8300E0FAF5821209718066120968806112091E
:100D930068805C90E6B8E0FA53021FBA005190E60F
:100DA300BAE0FABA01028005BA0202804212096867
:100DB300803D90E6BAE0FA702E90E6BCE0FAF58248
:100DC300120AC0E582601B90E6BCE0FAF582120AC3
:100DD300DFAA82AB83E0FC4304018A828B83ECF0BD
:100DE300800D12096880081209688003120968904F
:100DF300E6A0E0FA4480F022AA82BA03004005EAA2
:100E0300249C500122740F5AFBBB03028007740F0A
:100E13005AFBBB0B45A2AF9203C2AFEA2400F58293
:100E2300E43400F5837402F07B0074012AFCE43B94
:100E3300FDEC2400F582ED3400F583E51DFCF07430
:100E4300022AFAE43BFBEA2400F582EB3400F58343
:100E5300AA1C7B00EAF0A20392AF22E582FA248364
:100E630050012274035AFB600122A2AF9204C2AF65
:100E7300EA2400F582E43401F5837402F07B007404
:100E8300012AFCE43BFDEC2400F582ED3401F583FB
:100E9300E51DFCF074022AFAE43BFBEA2400F58228
:100EA300EB3401F583AA1C7B00EAF0A20492AF2283
:100EB300AA82BA80004005EA244B50012274035AE7
:100EC300FB600122A2AF9205C2AFEA2480F582E45F
:100ED3003400F5837402F07B0074012AFCE43BFDCB
:100EE300EC2480F582ED3400F583E51DFCF07402FB
:100EF3002AFAE43BFBEA2480F582EB3400F583AA6B
:100F03001C7B00EAF0A20592AF22C2E8C2EA751C7C
:100F130000751D01758243120DFB751C80751D0044
:100F2300758253120DFB0090E650E4F00090E652F8
:100F3300E4F00090E654E4F00090E656E4F000900C
:100F4300E65174FFF00090E65374FFF00090E6550D
:100F530074FFF00090E65774FFF00090E658E4F059
:100F630090E65974FFF090E65AE4F090E65B74FF64
:100F7300F090E65CE4F090E65D74FFF090E65EE4EA
:100F8300F090E65F74FFF00090E660E4F00090E616
:100F93006174FFF090E662E4F090E66374FFF09012
:100FA300E665E4F090E668740BF05391AFD2E8D2B3
:100FB300EA2222AA82120FB5DAFB2290FB50A3E5A4
:100FC30082458370F922AA82AB83120FBE1ABAFF3D
:090FD300011BBA00F5BB00F2227B
:0D100300758120120946E58260030201801C
:100FDC0020F71430F6148883A88220F507E6A8833E
:0C0FEC0075830022E280F7E49322E022EB
:00000001FF
