:06000000020F9802006BE4
:03000B0002006B85
:0300130002006B7D
:03001B0002006B75
:0300230002006B6D
:03002B0002006B65
:0300330002006B5D
:03003B0002006B55
:0300430002006B4D
:03004B0002006B45
:0300530002006B3D
:03005B0002006B35
:0300630002006B2D
:01006B003262
:1000800002006B0002006B0002006B0002006B00BC
:1000900002006B0002006B0002006B0002006B00AC
:1000A00002006B0002006B0002006B0002006B009C
:0800B00002006B0002006B006E
:1001000002006B0002006B0002006B0002006B003B
:1001100002006B0002006B0002006B0002006B002B
:1001200002006B0002006B0002006B0002006B001B
:1001300002006B0002006B0002006B0002006B000B
:1001400002006B0002006B0002006B0002006B00FB
:1001500002006B0002006B0002006B0002006B00EB
:1001600002006B0002006B0002006B0002006B00DB
:1001700002006B0002006B0002006B0002006B00CB
:030FA000020FA697
:030FB900020FA381
:030FA3000205A79D
:10018000C200E4F508F509F50AD201750B00750CFB
:100190000012078512078275CB6375CAC0758E0081
:1001A00075C804D2AFD2B0D2B190E60B7403F000A0
:1001B00090E6047480F00090E6047402F00090E68B
:1001C000047404F00090E6047406F00090E60474F1
:1001D00008F00090E604E4F00090E61074A0F0004F
:1001E00090E61174A0F00090E618E4F00090E6129A
:1001F00074A2F00090E619E4F00090E61374A0F009
:100200000090E60BE4F00090E61474A2F00090E693
:100210001AE4F00090E61A7411F00090E61574E00C
:10022000F00090E61BE4F00090E61B7409F00090EB
:10023000E626E4F00090E6277440F00090E6917422
:1002400080F00090E6957480F00090E6917480F064
:100250000090E6957480F00043A08090E6FBE0FFFC
:1002600074FD5FF090E601E0FF74F75FF022AF826B
:10027000850C827583E0EFF0050C0509E4B50902F1
:10028000050A222000012212078190E6A2E0FF3039
:10029000E10302031BE509450A60687EC07FE78F22
:1002A0009D7EC07FE77F008E9E90E67C7431F07467
:1002B00060F0C3743E9509E4950A50107F3EE5094D
:1002C00024C2F509E50A34FFF50A8007AF09E4F511
:1002D00009F50A8F067C007DE08D9A850B9B8F05C2
:1002E0001FED601090E67BE090E67CF07C007DE006
:1002F0008D9A80EA859B0B0090E68F74022EF0D2D7
:10030000CF801830CF1590E7C07431F090E7C174FA
:1003100060F00090E68F7402F0C2CFE5AA30E001F1
:1003200022C3E50994C1E50A940040012290E690B9
:10033000E0FE7F0090E691E0FD7C00EF4DF50DEED4
:100340004CF50E7C007DF08D9A7C007DF08C9B7CC2
:10035000007D00C3EC950DED950E400302042BE5E6
:100360000870030203EAE50DC39CFAE50E9DFBA8A5
:10037000087900C3E89AE99B5004880289038A013E
:10038000E508C399F508EA2CFCEB3DFD30012C8A09
:10039000008B018806890718B8FF0119EE4F60B37A
:1003A00090E67BE0F582C005C004C001C0001207E2
:1003B000E2D000D001D004D00580D88A068B078E09
:1003C000028F031EBEFF011FEA4B608790E67BE0B1
:1003D000F582C007C006C005C00412081F12026ED5
:1003E000D004D005D006D00780D590E67BE0FFA2F0
:1003F000E69202B39201EF30E707743F5FF50880A1
:100400002230010F8F82C005C0041207A4D004D08F
:100410000580108F82C005C0041207D012026ED072
:1004200004D0050CBC00010D0203530090E691744A
:1004300080F02290E6B8E0FF20E70C90E6B9E0708B
:1004400002D2007582012290E6B9E0FFBF900280DF
:100450001ABF91028058BF92030204E7BF930302C0
:100460000505BF940302053602056F90E6BCE02542
:10047000E0547FFF2400F582E43418F583E0FE9019
:10048000E740F0EF042400F582E43418F583E090AF
:10049000E741F090E6BEE0FFBF0200500790E6BEE5
:1004A000E0FF80027F0290E68BEFF002059890E675
:1004B000BCE0701490E6FBE0FF74FD5FF090E74055
:1004C0007402F012090F801290E6FBE0FF74024FF5
:1004D000F090E7407401F012090F90E68AE4F09082
:1004E000E68B04F002059890E6BCE0700543A0801E
:1004F0008007AFA0747F5FF5A090E68AE4F090E6F5
:100500008BF002059890E6BCE0701090E601E0FFE9
:1005100074F75FF090E740E4F0800F90E601E0FFB1
:1005200074084FF090E7407401F090E68AE4F09090
:10053000E68B04F080627E007F00EE24BCFBEF348B
:100540000FFC7D808B828C838DF0120F7CFD6013FD
:10055000EE2440F582EF34E7F583EDF00EBE00DACD
:100560000F80D790E68AE4F090E68BEEF080299039
:10057000E7407436F090E7417483F090E68AE4F047
:1005800090E6BEE0FFBF0200500790E6BEE0FF80AD
:10059000027F0290E68BEFF0758201223004031295
:1005A0000AD412028380F5C2AF120180120604122F
:0D05B0000EA9120A3BD2AF12090F02059CE2
:060FBC00342E322E30003D
:10E1000012011001FF000040FB0901600004010240
:10E1100003010A061001FFFFFF400100090237005A
:10E1200002010080FA0904000002FFFFFF02070558
:10E1300081024000000705020240000009040100BE
:10E1400002FFFFFF02070506020002000705880222
:03E15000000200CA
:10E154001201100100000040FB09016000040102EB
:10E1640003010A061001FFFFFF4001000902370006
:10E1740002010080FA0904000002FFFFFF02070504
:10E18400810240000007050202400000090401006A
:10E1940002FFFFFF02070506024000000705880290
:10E1A40040000004B0E1B6E1C0E1D8E1060300009C
:10E1B40009040A034500500046004C0018035500AA
:10E1C400530042002D0042006C0061007300740093
:10E1D400650072001203300030003000300030005F
:06E1E400300030003000A5
:1005BD00AF82E50F54FEFEB50F02802A8F048C0525
:1005CD00E4FC6210ED6211EE2400F582E43418F5BE
:1005DD0083E0FE7D006210ED6211E51033C511332D
:1005ED00C51192E0F510AE0F050FEE2400F582E473
:1005FD003418F583EFF022750F007510AA7511AA46
:10060D007582001205BD7582001205BD7F00EF24B5
:10061D0008F582E434E1F583E0F582C0071205BDEB
:10062D00D0070FC3EF6480948640E37F00EF24234F
:10063D00F582E434E1F583E0F582C0071205BDD003
:10064D00070FC3EF6480948240E375821C1205BDD1
:10065D007582001205BD7F00EF2402F582E434E1BE
:10066D00F583E0F582C0071205BDD0070FC3EF6417
:10067D0080948240E37486250FFFF582C007120532
:10068D00BD90E1B6E0F5821205BDD00790E1B6E070
:10069D002FFFF582C0071205BD90E1C0E0F5821273
:1006AD0005BDD00790E1C0E02FF5821205BD90E1A8
:1006BD00D8E0F5821205BD7F0090E1B6E0FEC3EFF4
:1006CD0064808EF063F08095F05017EF24B6F582BC
:1006DD00E434E1F583E0F582C0071205BDD0070FC4
:1006ED0080D77F0090E1C0E0FEC3EF64808EF063A1
:1006FD00F08095F05017EF24C0F582E434E1F583D6
:10070D00E0F582C0071205BDD0070F80D77F00909E
:10071D00E1D8E0FEC3EF64808EF063F08095F05079
:10072D0017EF24D8F582E434E1F583E0F582C007B4
:10073D001205BDD0070F80D77F00EF240EF582E4A0
:10074D0034E1F583E0F582C0071205BDD0070FC374
:10075D00EF6480948440E37482250F400875820015
:10076D001205BD80F2AE1090187EEEF0AF1190180C
:04077D007FEFF022F8
:020F9800D20085
:100781002222222290E6007412F090E60174E0F039
:10079100E0FF740B4FF075B48075B67F75B140758D
:1007A100B48D22E582FF13920392A2EFA2E192039C
:1007B10092A3EFA2E2920392A5EFA2E3920392A485
:1007C100EFA2E4920392A0EFA2E5920392A7221274
:1007D10007A4A2A6E43325E0FFA2A1E4334FF582EA
:1007E10022E5821392A0D2A213C2A292A0D2A21396
:1007F100C2A292A0D2A213C2A292A0D2A213C2A25A
:1008010092A0D2A213C2A292A0D2A213C2A292A07B
:10081100D2A213C2A292A0D2A200C2A22222AF826D
:1008210030A4058F8202082E8F8202087CE582A205
:10083100A11392A0D2A2C2A2A2A11392A0D2A2C23B
:10084100A2A2A11392A0D2A2C2A2A2A11392A0D24B
:10085100A2C2A2A2A11392A0D2A2C2A2A2A1139249
:10086100A0D2A2C2A2A2A11392A0D2A2C2A2A2A16C
:100871001392A0D2A2C2A2F5822222E582A2A613DD
:1008810092A0D2A2C2A2A2A61392A0D2A2C2A2A256
:10089100A61392A0D2A2C2A2A2A61392A0D2A2C2D1
:1008A100A2A2A61392A0D2A2C2A2A2A61392A0D2E1
:1008B100A2C2A2A2A61392A0D2A2C2A2A2A61392DF
:1008C100A0D2A2C2A2F58222227880E84400600C64
:1008D1007901901800E4F0A3D8FCD9FAD083D08232
:1008E100F6D8FDC082C0837582002290E6A0E0FFA9
:1008F10074014FF022AF8274805FC423541FFE74D1
:100901000F5F90E6834EF0E0FF74204FF02290E6F7
:1009110080E0FF740A4FF09000FA120F6B90E65DD1
:1009210074FFF090E65FF0AF9174EF5FF59190E6A0
:0809310080E0FF74F75FF02283
:060FB300E478FFF6D8FD12
:060F9A0075120075130042
:1009390090E680E0FF30E7267514007515E175161D
:10094900127517E175181C7519E1751A70751BE197
:1009590090E6267402F00090E627E4F00022751470
:10096900547515E17516667517E17518707519E1F5
:10097900751A1C751BE190E626E4F00090E62774D1
:1009890040F00022C0E0C007C0D075D000AF91741C
:10099900EF5FF59175A100D204D0D0D007D0E03235
:1009A900C021C0E0C0F0C082C083C007C006C00536
:1009B900C004C003C002C001C000C0D075D000AFE0
:1009C9009174EF5FF59175A100120939D0D0D0006B
:1009D900D001D002D003D004D005D006D007D083EF
:1009E900D082D0F0D0E0D02132C021C0E0C0F0C028
:1009F90082C083C007C006C005C004C003C002C0CE
:100A090001C000C0D075D000AF9174EF5FF591754A
:100A1900A100120939D0D0D000D001D002D003D022
:100A290004D005D006D007D083D082D0F0D0E0D052
:100A39002132120939751C8D751D09758200120E36
:100A490004751CA9751D09758210120E04751CF216
:100A5900751D09758214120E0490E65C7431F0223A
:100A6900AF828F06747F5EFF24F7500475820022DF
:100A7900BF010475820122530701E4BF000104F597
:100A89008222AF82BF010C90E6A1E0FE7D008E823A
:100A99008D8322BF810C90E6A2E0FE7D008E828DBF
:100AA90083228F06747F5EFF700C90E6A0E0FE7DC6
:100AB900008E828D832290E6A3E0FE7D00EFC313B2
:100AC9007C002EFEEC3D8E82F58322C20490E6B8AE
:100AD900E0FF5307608F06BE00028028BF20028016
:100AE9000DBF4002800EBF60028003020D981208FC
:100AF900EC020D98120433E5826003020D98120886
:100B0900EC020D9890E6B8E0FF530780BF800280A1
:100B190003020C9590E6B9E0FFBF0003020C0CBF7D
:100B290006028033BF08028008BF0A028016020C41
:100B39008F90E740E512F090E68AE4F090E68B04A6
:100B4900F0020D9890E740E513F090E68AE4F09002
:100B5900E68B04F0020D9890E6BBE0FFBF0102802E
:100B690017BF02028038BF03028059BF0602801BEB
:100B7900BF0702803C020C06AE14AF1590E6B3EF36
:100B8900F07F0090E6B4EEF0020D98AE16AF179024
:100B9900E6B3EFF07F0090E6B4EEF0020D98AE18E0
:100BA900AF1990E6B3EFF07F0090E6B4EEF0020DD6
:100BB90098AE1AAF1B90E6B3EFF07F0090E6B4EE63
:100BC900F0020D9890E6BAE0FF90E1A7E0FEC3EFCE
:100BD9009E40061208EC020D9890E6BAE075F00204
:100BE900A424A8F58274E135F0F583E0FEA3E09032
:100BF900E6B3F07F0090E6B4EEF0020D981208EC2F
:100C0900020D9890E6B8E0FF53071F8F06BE000259
:100C1900800ABE0102801BBF0266802C90E740E477
:100C2900F090E741F090E68AF090E68B7402F002CA
:100C39000D9890E740E4F090E741F090E68AF09053
:100C4900E68B7402F0020D9890E6BCE0F582120A78
:100C590069E582602590E6BCE0F582120A8BE0FF27
:100C690053070190E740EFF090E741E4F090E68AFE
:100C7900F090E68B7402F0020D981208EC020D98C0
:100C89001208EC020D981208EC020D9890E6B9E0F2
:100C9900FF24F45003020D95EF240A83F582EF2413
:100CA9001083F583E47395E05D3E9595959595C719
:100CB90095D70D0C0D0D0D0D0D0D0D0C0D0CAFB1C6
:100CC90074BF5FF5B190E6BAE0F512020D9890E6AF
:100CD900BAE0F513020D9890E6B8E0FF53071F8FAD
:100CE90006BE00028005BF0247800A90E6BAE012FC
:100CF90008EC020D9890E6BAE0703090E6BCE0F599
:100D090082120A69E582602390E6BCE0F582120A44
:100D19008BAE82AF83E0FD5305FE8E828F83EDF0AB
:100D290090E6BCE0F5821208F680641208EC805F58
:100D39001208EC805A90E6B8E0FF53071FBF004F36
:100D490090E6BAE0FFBF01028005BF0202804012AF
:100D590008EC803B90E6BAE0FF702C90E6BCE0F529
:100D690082120A69E582601A90E6BCE0F582120AED
:100D79008BAE82AF83E0FD4305018E828F83EDF058
:100D8900800D1208EC80081208EC80031208EC9020
:100D9900E6A0E0FF74804FF022AF82BF0300400558
:100DA900EF249C500122740F5FFEBE03028007747A
:100DB9000F5FFEBE0B44A2AF9205C2AFEF2400F550
:100DC90082E43400F5837402F07E00142FFCE43EC3
:100DD900FDEC2400F582ED3400F583E51DFDF0748A
:100DE900022FFFE43EFEEF2400F582EE3400F58386
:100DF900AE1C7F00EEF0A20592AF22E582FF2483AC
:100E0900500122EF5403600122A2AF9206C2AFEF54
:100E19002400F582E43401F5837402F07E00142F76
:100E2900FCE43EFDEC2400F582ED3401F583E51D7B
:100E3900F074022FFFE43EFEEF2400F582EE340148
:100E4900F583AE1CEEF0A20692AF22AF82BF8000FE
:100E59004005EF244B500122EF5403600122A2AF59
:100E69009207C2AFEF2480F582E43400F58374025F
:100E7900F07E00142FFCE43EFDEC2480F582ED3475
:100E890000F583E51DF074022FFFE43EFEEF248098
:100E9900F582EE3400F583AE1CEEF0A20792AF2284
:100EA900C2E8C2EA751C00751D01758243120DA2C4
:100EB900751C80751D00758253120DA20090E650B5
:100EC900E4F00090E652E4F00090E654E4F000907B
:100ED900E656E4F00090E65174FFF00090E6537492
:100EE900FFF00090E65574FFF00090E65774FFF0AC
:100EF9000090E658E4F090E65914F090E65AE4F0D0
:100F090090E65B14F090E65CE4F090E65D14F090F6
:100F1900E65EE4F090E65F14F00090E660E4F0002D
:100F290090E66174FFF090E662E4F090E66314F0F5
:100F390090E665E4F090E668740BF0AF9174EF5FAA
:100F4900F591AF9174BF5FF591D2E8D2EA2222AF51
:100F590082120F57DFFB2290FB50A3E58245837075
:100F6900F922AE82AF83120F601EBEFF011FEE4F42
:030F790070F422EF
:0D0FA6007581211208CAE5826003020FA3C5
:100F7C0020F71430F6148883A88220F507E6A8839E
:0C0F8C0075830022E280F7E49322E0224B
:00000001FF
